{
  "_format": "hh-sol-artifact-1",
  "contractName": "Tracking",
  "sourceName": "contracts/Tracking.sol",
  "abi": [
    {
      "inputs": [],
      "stateMutability": "nonpayable",
      "type": "constructor"
    },
    {
      "anonymous": false,
      "inputs": [
        {
          "indexed": true,
          "internalType": "address",
          "name": "sender",
          "type": "address"
        },
        {
          "indexed": true,
          "internalType": "address",
          "name": "receiver",
          "type": "address"
        },
        {
          "indexed": false,
          "internalType": "uint256",
          "name": "fecha",
          "type": "uint256"
        },
        {
          "indexed": false,
          "internalType": "uint256",
          "name": "almacenamiento",
          "type": "uint256"
        },
        {
          "indexed": false,
          "internalType": "uint256",
          "name": "precio",
          "type": "uint256"
        }
      ],
      "name": "RamCreada",
      "type": "event"
    },
    {
      "anonymous": false,
      "inputs": [
        {
          "indexed": true,
          "internalType": "address",
          "name": "sender",
          "type": "address"
        },
        {
          "indexed": true,
          "internalType": "address",
          "name": "receiver",
          "type": "address"
        },
        {
          "indexed": false,
          "internalType": "uint256",
          "name": "fecha",
          "type": "uint256"
        }
      ],
      "name": "RamEnTransito",
      "type": "event"
    },
    {
      "anonymous": false,
      "inputs": [
        {
          "indexed": true,
          "internalType": "address",
          "name": "sender",
          "type": "address"
        },
        {
          "indexed": true,
          "internalType": "address",
          "name": "receiver",
          "type": "address"
        },
        {
          "indexed": false,
          "internalType": "uint256",
          "name": "fechaEntrega",
          "type": "uint256"
        }
      ],
      "name": "RamEntregada",
      "type": "event"
    },
    {
      "anonymous": false,
      "inputs": [
        {
          "indexed": true,
          "internalType": "address",
          "name": "sender",
          "type": "address"
        },
        {
          "indexed": true,
          "internalType": "address",
          "name": "receiver",
          "type": "address"
        },
        {
          "indexed": false,
          "internalType": "uint256",
          "name": "amount",
          "type": "uint256"
        }
      ],
      "name": "RamPagada",
      "type": "event"
    },
    {
      "inputs": [
        {
          "internalType": "address",
          "name": "_sender",
          "type": "address"
        },
        {
          "internalType": "uint256",
          "name": "_index",
          "type": "uint256"
        }
      ],
      "name": "conseguirRam",
      "outputs": [
        {
          "internalType": "address",
          "name": "",
          "type": "address"
        },
        {
          "internalType": "address",
          "name": "",
          "type": "address"
        },
        {
          "internalType": "uint256",
          "name": "",
          "type": "uint256"
        },
        {
          "internalType": "uint256",
          "name": "",
          "type": "uint256"
        },
        {
          "internalType": "uint256",
          "name": "",
          "type": "uint256"
        },
        {
          "internalType": "uint256",
          "name": "",
          "type": "uint256"
        },
        {
          "internalType": "enum Tracking.RamStatus",
          "name": "",
          "type": "uint8"
        },
        {
          "internalType": "bool",
          "name": "",
          "type": "bool"
        }
      ],
      "stateMutability": "view",
      "type": "function"
    },
    {
      "inputs": [
        {
          "internalType": "address",
          "name": "_sender",
          "type": "address"
        }
      ],
      "name": "conseguirRamContador",
      "outputs": [
        {
          "internalType": "uint256",
          "name": "",
          "type": "uint256"
        }
      ],
      "stateMutability": "view",
      "type": "function"
    },
    {
      "inputs": [],
      "name": "conseguirTodasTransacciones",
      "outputs": [
        {
          "components": [
            {
              "internalType": "address",
              "name": "sender",
              "type": "address"
            },
            {
              "internalType": "address",
              "name": "receiver",
              "type": "address"
            },
            {
              "internalType": "uint256",
              "name": "fecha",
              "type": "uint256"
            },
            {
              "internalType": "uint256",
              "name": "fechaEntrega",
              "type": "uint256"
            },
            {
              "internalType": "uint256",
              "name": "almacenamiento",
              "type": "uint256"
            },
            {
              "internalType": "uint256",
              "name": "precio",
              "type": "uint256"
            },
            {
              "internalType": "enum Tracking.RamStatus",
              "name": "estado",
              "type": "uint8"
            },
            {
              "internalType": "bool",
              "name": "pagado",
              "type": "bool"
            }
          ],
          "internalType": "struct Tracking.TypeRam[]",
          "name": "",
          "type": "tuple[]"
        }
      ],
      "stateMutability": "view",
      "type": "function"
    },
    {
      "inputs": [
        {
          "internalType": "address",
          "name": "_receiver",
          "type": "address"
        },
        {
          "internalType": "uint256",
          "name": "_fecha",
          "type": "uint256"
        },
        {
          "internalType": "uint256",
          "name": "_almacenamiento",
          "type": "uint256"
        },
        {
          "internalType": "uint256",
          "name": "_precio",
          "type": "uint256"
        }
      ],
      "name": "crearRam",
      "outputs": [],
      "stateMutability": "payable",
      "type": "function"
    },
    {
      "inputs": [
        {
          "internalType": "address",
          "name": "_sender",
          "type": "address"
        },
        {
          "internalType": "address",
          "name": "_receiver",
          "type": "address"
        },
        {
          "internalType": "uint256",
          "name": "_index",
          "type": "uint256"
        }
      ],
      "name": "envioRamCompleto",
      "outputs": [],
      "stateMutability": "nonpayable",
      "type": "function"
    },
    {
      "inputs": [
        {
          "internalType": "address",
          "name": "_sender",
          "type": "address"
        },
        {
          "internalType": "address",
          "name": "_receiver",
          "type": "address"
        },
        {
          "internalType": "uint256",
          "name": "_index",
          "type": "uint256"
        }
      ],
      "name": "iniciarEnvioRam",
      "outputs": [],
      "stateMutability": "nonpayable",
      "type": "function"
    },
    {
      "inputs": [],
      "name": "ramContador",
      "outputs": [
        {
          "internalType": "uint256",
          "name": "",
          "type": "uint256"
        }
      ],
      "stateMutability": "view",
      "type": "function"
    },
    {
      "inputs": [
        {
          "internalType": "address",
          "name": "",
          "type": "address"
        },
        {
          "internalType": "uint256",
          "name": "",
          "type": "uint256"
        }
      ],
      "name": "rams",
      "outputs": [
        {
          "internalType": "address",
          "name": "sender",
          "type": "address"
        },
        {
          "internalType": "address",
          "name": "receiver",
          "type": "address"
        },
        {
          "internalType": "uint256",
          "name": "fecha",
          "type": "uint256"
        },
        {
          "internalType": "uint256",
          "name": "fechaEntrega",
          "type": "uint256"
        },
        {
          "internalType": "uint256",
          "name": "almacenamiento",
          "type": "uint256"
        },
        {
          "internalType": "uint256",
          "name": "precio",
          "type": "uint256"
        },
        {
          "internalType": "enum Tracking.RamStatus",
          "name": "estado",
          "type": "uint8"
        },
        {
          "internalType": "bool",
          "name": "pagado",
          "type": "bool"
        }
      ],
      "stateMutability": "view",
      "type": "function"
    }
  ],
  "bytecode": "0x608060405234801561001057600080fd5b506000600181905550611947806100286000396000f3fe60806040526004361061007b5760003560e01c80633e248e481161004e5780633e248e481461013457806342104acb14610171578063851fe8ac146101b5578063e3c93307146101e05761007b565b80630dc7da431461008057806327f3234d146100c457806332696355146100ed5780633276d47314610118575b600080fd5b34801561008c57600080fd5b506100a760048036038101906100a291906111c1565b610209565b6040516100bb9897969594939291906112b1565b60405180910390f35b3480156100d057600080fd5b506100eb60048036038101906100e6919061132f565b6102c8565b005b3480156100f957600080fd5b5061010261069c565b60405161010f9190611510565b60405180910390f35b610132600480360381019061012d9190611532565b610826565b005b34801561014057600080fd5b5061015b60048036038101906101569190611599565b610c91565b60405161016891906115c6565b60405180910390f35b34801561017d57600080fd5b50610198600480360381019061019391906111c1565b610cdc565b6040516101ac9897969594939291906112b1565b60405180910390f35b3480156101c157600080fd5b506101ca610ec6565b6040516101d791906115c6565b60405180910390f35b3480156101ec57600080fd5b506102076004803603810190610202919061132f565b610ecc565b005b6000602052816000526040600020818154811061022557600080fd5b9060005260206000209060070201600091509150508060000160009054906101000a900473ffffffffffffffffffffffffffffffffffffffff16908060010160009054906101000a900473ffffffffffffffffffffffffffffffffffffffff16908060020154908060030154908060040154908060050154908060060160009054906101000a900460ff16908060060160019054906101000a900460ff16905088565b60008060008573ffffffffffffffffffffffffffffffffffffffff1673ffffffffffffffffffffffffffffffffffffffff168152602001908152602001600020828154811061031a576103196115e1565b5b906000526020600020906007020190506000600283815481106103405761033f6115e1565b5b906000526020600020906007020190508373ffffffffffffffffffffffffffffffffffffffff168260010160009054906101000a900473ffffffffffffffffffffffffffffffffffffffff1673ffffffffffffffffffffffffffffffffffffffff16146103e2576040517f08c379a00000000000000000000000000000000000000000000000000000000081526004016103d99061166d565b60405180910390fd5b600160028111156103f6576103f561121f565b5b8260060160009054906101000a900460ff16600281111561041a5761041961121f565b5b1461045a576040517f08c379a0000000000000000000000000000000000000000000000000000000008152600401610451906116d9565b60405180910390fd5b8160060160019054906101000a900460ff16156104ac576040517f08c379a00000000000000000000000000000000000000000000000000000000081526004016104a390611745565b60405180910390fd5b60028260060160006101000a81548160ff021916908360028111156104d4576104d361121f565b5b021790555060028160060160006101000a81548160ff021916908360028111156105015761050061121f565b5b02179055504281600301819055504282600301819055506000826005015490508260000160009054906101000a900473ffffffffffffffffffffffffffffffffffffffff1673ffffffffffffffffffffffffffffffffffffffff166108fc829081150290604051600060405180830381858888f1935050505015801561058b573d6000803e3d6000fd5b5060018360060160016101000a81548160ff02191690831515021790555060018260060160016101000a81548160ff0219169083151502179055508473ffffffffffffffffffffffffffffffffffffffff168673ffffffffffffffffffffffffffffffffffffffff167f8cb188a61c885a32f41998a5c8821651aa6f5a9d74d37365bde31b51aa7eda03856003015460405161062791906115c6565b60405180910390a38473ffffffffffffffffffffffffffffffffffffffff168673ffffffffffffffffffffffffffffffffffffffff167f7d884dff237db6008cca1d1da366c8b2fc0ae12417e9624b41d71ece904badf48360405161068c91906115c6565b60405180910390a3505050505050565b60606002805480602002602001604051908101604052809291908181526020016000905b8282101561081d5783829060005260206000209060070201604051806101000160405290816000820160009054906101000a900473ffffffffffffffffffffffffffffffffffffffff1673ffffffffffffffffffffffffffffffffffffffff1673ffffffffffffffffffffffffffffffffffffffff1681526020016001820160009054906101000a900473ffffffffffffffffffffffffffffffffffffffff1673ffffffffffffffffffffffffffffffffffffffff1673ffffffffffffffffffffffffffffffffffffffff168152602001600282015481526020016003820154815260200160048201548152602001600582015481526020016006820160009054906101000a900460ff1660028111156107dd576107dc61121f565b5b60028111156107ef576107ee61121f565b5b81526020016006820160019054906101000a900460ff161515151581525050815260200190600101906106c0565b50505050905090565b803414610868576040517f08c379a000000000000000000000000000000000000000000000000000000000815260040161085f906117d7565b60405180910390fd5b60006040518061010001604052803373ffffffffffffffffffffffffffffffffffffffff1681526020018673ffffffffffffffffffffffffffffffffffffffff16815260200185815260200160008152602001848152602001838152602001600060028111156108db576108da61121f565b5b81526020016000151581525090506000803373ffffffffffffffffffffffffffffffffffffffff1673ffffffffffffffffffffffffffffffffffffffff16815260200190815260200160002081908060018154018082558091505060019003906000526020600020906007020160009091909190915060008201518160000160006101000a81548173ffffffffffffffffffffffffffffffffffffffff021916908373ffffffffffffffffffffffffffffffffffffffff16021790555060208201518160010160006101000a81548173ffffffffffffffffffffffffffffffffffffffff021916908373ffffffffffffffffffffffffffffffffffffffff16021790555060408201518160020155606082015181600301556080820151816004015560a0820151816005015560c08201518160060160006101000a81548160ff02191690836002811115610a3257610a3161121f565b5b021790555060e08201518160060160016101000a81548160ff021916908315150217905550505060016000815480929190610a6c90611826565b919050555060026040518061010001604052803373ffffffffffffffffffffffffffffffffffffffff1681526020018773ffffffffffffffffffffffffffffffffffffffff1681526020018681526020016000815260200185815260200184815260200160006002811115610ae457610ae361121f565b5b815260200160001515815250908060018154018082558091505060019003906000526020600020906007020160009091909190915060008201518160000160006101000a81548173ffffffffffffffffffffffffffffffffffffffff021916908373ffffffffffffffffffffffffffffffffffffffff16021790555060208201518160010160006101000a81548173ffffffffffffffffffffffffffffffffffffffff021916908373ffffffffffffffffffffffffffffffffffffffff16021790555060408201518160020155606082015181600301556080820151816004015560a0820151816005015560c08201518160060160006101000a81548160ff02191690836002811115610bfa57610bf961121f565b5b021790555060e08201518160060160016101000a81548160ff02191690831515021790555050508473ffffffffffffffffffffffffffffffffffffffff163373ffffffffffffffffffffffffffffffffffffffff167fe0330c4fe24d97b27c2e99066bc91987bd40ddf6bdd635d97ac8f9fb51407f70868686604051610c829392919061186e565b60405180910390a35050505050565b60008060008373ffffffffffffffffffffffffffffffffffffffff1673ffffffffffffffffffffffffffffffffffffffff168152602001908152602001600020805490509050919050565b60008060008060008060008060008060008c73ffffffffffffffffffffffffffffffffffffffff1673ffffffffffffffffffffffffffffffffffffffff1681526020019081526020016000208a81548110610d3a57610d396115e1565b5b9060005260206000209060070201604051806101000160405290816000820160009054906101000a900473ffffffffffffffffffffffffffffffffffffffff1673ffffffffffffffffffffffffffffffffffffffff1673ffffffffffffffffffffffffffffffffffffffff1681526020016001820160009054906101000a900473ffffffffffffffffffffffffffffffffffffffff1673ffffffffffffffffffffffffffffffffffffffff1673ffffffffffffffffffffffffffffffffffffffff168152602001600282015481526020016003820154815260200160048201548152602001600582015481526020016006820160009054906101000a900460ff166002811115610e4d57610e4c61121f565b5b6002811115610e5f57610e5e61121f565b5b81526020016006820160019054906101000a900460ff1615151515815250509050806000015181602001518260400151836060015184608001518560a001518660c001518760e0015198509850985098509850985098509850509295985092959890939650565b60015481565b60008060008573ffffffffffffffffffffffffffffffffffffffff1673ffffffffffffffffffffffffffffffffffffffff1681526020019081526020016000208281548110610f1e57610f1d6115e1565b5b90600052602060002090600702019050600060028381548110610f4457610f436115e1565b5b906000526020600020906007020190508373ffffffffffffffffffffffffffffffffffffffff168260010160009054906101000a900473ffffffffffffffffffffffffffffffffffffffff1673ffffffffffffffffffffffffffffffffffffffff1614610fe6576040517f08c379a0000000000000000000000000000000000000000000000000000000008152600401610fdd9061166d565b60405180910390fd5b60006002811115610ffa57610ff961121f565b5b8260060160009054906101000a900460ff16600281111561101e5761101d61121f565b5b1461105e576040517f08c379a0000000000000000000000000000000000000000000000000000000008152600401611055906118f1565b60405180910390fd5b60018260060160006101000a81548160ff021916908360028111156110865761108561121f565b5b021790555060018160060160006101000a81548160ff021916908360028111156110b3576110b261121f565b5b02179055508373ffffffffffffffffffffffffffffffffffffffff168573ffffffffffffffffffffffffffffffffffffffff167f5d8cf88224e26980aa49c84d35ee7085adca0fa7e4d6e16e1618192cbca368d9846002015460405161111991906115c6565b60405180910390a35050505050565b600080fd5b600073ffffffffffffffffffffffffffffffffffffffff82169050919050565b60006111588261112d565b9050919050565b6111688161114d565b811461117357600080fd5b50565b6000813590506111858161115f565b92915050565b6000819050919050565b61119e8161118b565b81146111a957600080fd5b50565b6000813590506111bb81611195565b92915050565b600080604083850312156111d8576111d7611128565b5b60006111e685828601611176565b92505060206111f7858286016111ac565b9150509250929050565b61120a8161114d565b82525050565b6112198161118b565b82525050565b7f4e487b7100000000000000000000000000000000000000000000000000000000600052602160045260246000fd5b6003811061125f5761125e61121f565b5b50565b60008190506112708261124e565b919050565b600061128082611262565b9050919050565b61129081611275565b82525050565b60008115159050919050565b6112ab81611296565b82525050565b6000610100820190506112c7600083018b611201565b6112d4602083018a611201565b6112e16040830189611210565b6112ee6060830188611210565b6112fb6080830187611210565b61130860a0830186611210565b61131560c0830185611287565b61132260e08301846112a2565b9998505050505050505050565b60008060006060848603121561134857611347611128565b5b600061135686828701611176565b935050602061136786828701611176565b9250506040611378868287016111ac565b9150509250925092565b600081519050919050565b600082825260208201905092915050565b6000819050602082019050919050565b6113b78161114d565b82525050565b6113c68161118b565b82525050565b6113d581611275565b82525050565b6113e481611296565b82525050565b6101008201600082015161140160008501826113ae565b50602082015161141460208501826113ae565b50604082015161142760408501826113bd565b50606082015161143a60608501826113bd565b50608082015161144d60808501826113bd565b5060a082015161146060a08501826113bd565b5060c082015161147360c08501826113cc565b5060e082015161148660e08501826113db565b50505050565b600061149883836113ea565b6101008301905092915050565b6000602082019050919050565b60006114bd82611382565b6114c7818561138d565b93506114d28361139e565b8060005b838110156115035781516114ea888261148c565b97506114f5836114a5565b9250506001810190506114d6565b5085935050505092915050565b6000602082019050818103600083015261152a81846114b2565b905092915050565b6000806000806080858703121561154c5761154b611128565b5b600061155a87828801611176565b945050602061156b878288016111ac565b935050604061157c878288016111ac565b925050606061158d878288016111ac565b91505092959194509250565b6000602082840312156115af576115ae611128565b5b60006115bd84828501611176565b91505092915050565b60006020820190506115db6000830184611210565b92915050565b7f4e487b7100000000000000000000000000000000000000000000000000000000600052603260045260246000fd5b600082825260208201905092915050565b7f496e76616c69642072656365697665722e000000000000000000000000000000600082015250565b6000611657601183611610565b915061166282611621565b602082019050919050565b600060208201905081810360008301526116868161164a565b9050919050565b7f52616d206e6f20656e207472616e7369746f2e00000000000000000000000000600082015250565b60006116c3601383611610565b91506116ce8261168d565b602082019050919050565b600060208201905081810360008301526116f2816116b6565b9050919050565b7f72616d207061676164612e000000000000000000000000000000000000000000600082015250565b600061172f600b83611610565b915061173a826116f9565b602082019050919050565b6000602082019050818103600083015261175e81611722565b9050919050565b7f456c206d6f6e746f2064656c207061676f206465626520636f696e636964697260008201527f20636f6e20656c2070726563696f2e0000000000000000000000000000000000602082015250565b60006117c1602f83611610565b91506117cc82611765565b604082019050919050565b600060208201905081810360008301526117f0816117b4565b9050919050565b7f4e487b7100000000000000000000000000000000000000000000000000000000600052601160045260246000fd5b60006118318261118b565b91507fffffffffffffffffffffffffffffffffffffffffffffffffffffffffffffffff8203611863576118626117f7565b5b600182019050919050565b60006060820190506118836000830186611210565b6118906020830185611210565b61189d6040830184611210565b949350505050565b7f52616d20656e73616d626c6164612079206c697374612e000000000000000000600082015250565b60006118db601783611610565b91506118e6826118a5565b602082019050919050565b6000602082019050818103600083015261190a816118ce565b905091905056fea2646970667358221220341a655acd6ae3a20978451e80ae0e357e33ab5e149ecdb4df4e232a6845fb9964736f6c63430008120033",
  "linkReferences": {},
  "deployedLinkReferences": {}
}